{"abi":[{"type":"constructor","inputs":[{"name":"_dataProvider","type":"address","internalType":"address"},{"name":"_oracle","type":"address","internalType":"address"}],"stateMutability":"nonpayable"},{"type":"function","name":"MARKET_POL","inputs":[],"outputs":[{"name":"","type":"bytes32","internalType":"bytes32"}],"stateMutability":"view"},{"type":"function","name":"MARKET_XAU","inputs":[],"outputs":[{"name":"","type":"bytes32","internalType":"bytes32"}],"stateMutability":"view"},{"type":"function","name":"approve","inputs":[{"name":"to","type":"address","internalType":"address"},{"name":"tokenId","type":"uint256","internalType":"uint256"}],"outputs":[],"stateMutability":"nonpayable"},{"type":"function","name":"balanceOf","inputs":[{"name":"owner","type":"address","internalType":"address"}],"outputs":[{"name":"","type":"uint256","internalType":"uint256"}],"stateMutability":"view"},{"type":"function","name":"getApproved","inputs":[{"name":"tokenId","type":"uint256","internalType":"uint256"}],"outputs":[{"name":"","type":"address","internalType":"address"}],"stateMutability":"view"},{"type":"function","name":"isApprovedForAll","inputs":[{"name":"owner","type":"address","internalType":"address"},{"name":"operator","type":"address","internalType":"address"}],"outputs":[{"name":"","type":"bool","internalType":"bool"}],"stateMutability":"view"},{"type":"function","name":"name","inputs":[],"outputs":[{"name":"","type":"string","internalType":"string"}],"stateMutability":"view"},{"type":"function","name":"owner","inputs":[],"outputs":[{"name":"","type":"address","internalType":"address"}],"stateMutability":"view"},{"type":"function","name":"ownerOf","inputs":[{"name":"tokenId","type":"uint256","internalType":"uint256"}],"outputs":[{"name":"","type":"address","internalType":"address"}],"stateMutability":"view"},{"type":"function","name":"renounceOwnership","inputs":[],"outputs":[],"stateMutability":"nonpayable"},{"type":"function","name":"requirements","inputs":[{"name":"_selector","type":"bytes4","internalType":"bytes4"}],"outputs":[{"name":"","type":"tuple[]","internalType":"struct DataDependent.DataRequirement[]","components":[{"name":"provider","type":"address","internalType":"address"},{"name":"requester","type":"address","internalType":"address"},{"name":"dataKey","type":"bytes32","internalType":"bytes32"}]}],"stateMutability":"view"},{"type":"function","name":"safeMint","inputs":[{"name":"to","type":"address","internalType":"address"}],"outputs":[],"stateMutability":"payable"},{"type":"function","name":"safeTransferFrom","inputs":[{"name":"from","type":"address","internalType":"address"},{"name":"to","type":"address","internalType":"address"},{"name":"tokenId","type":"uint256","internalType":"uint256"}],"outputs":[],"stateMutability":"nonpayable"},{"type":"function","name":"safeTransferFrom","inputs":[{"name":"from","type":"address","internalType":"address"},{"name":"to","type":"address","internalType":"address"},{"name":"tokenId","type":"uint256","internalType":"uint256"},{"name":"data","type":"bytes","internalType":"bytes"}],"outputs":[],"stateMutability":"nonpayable"},{"type":"function","name":"setApprovalForAll","inputs":[{"name":"operator","type":"address","internalType":"address"},{"name":"approved","type":"bool","internalType":"bool"}],"outputs":[],"stateMutability":"nonpayable"},{"type":"function","name":"supportsInterface","inputs":[{"name":"interfaceId","type":"bytes4","internalType":"bytes4"}],"outputs":[{"name":"","type":"bool","internalType":"bool"}],"stateMutability":"view"},{"type":"function","name":"symbol","inputs":[],"outputs":[{"name":"","type":"string","internalType":"string"}],"stateMutability":"view"},{"type":"function","name":"tokenURI","inputs":[{"name":"tokenId","type":"uint256","internalType":"uint256"}],"outputs":[{"name":"","type":"string","internalType":"string"}],"stateMutability":"view"},{"type":"function","name":"transferFrom","inputs":[{"name":"from","type":"address","internalType":"address"},{"name":"to","type":"address","internalType":"address"},{"name":"tokenId","type":"uint256","internalType":"uint256"}],"outputs":[],"stateMutability":"nonpayable"},{"type":"function","name":"transferOwnership","inputs":[{"name":"newOwner","type":"address","internalType":"address"}],"outputs":[],"stateMutability":"nonpayable"},{"type":"event","name":"Approval","inputs":[{"name":"owner","type":"address","indexed":true,"internalType":"address"},{"name":"approved","type":"address","indexed":true,"internalType":"address"},{"name":"tokenId","type":"uint256","indexed":true,"internalType":"uint256"}],"anonymous":false},{"type":"event","name":"ApprovalForAll","inputs":[{"name":"owner","type":"address","indexed":true,"internalType":"address"},{"name":"operator","type":"address","indexed":true,"internalType":"address"},{"name":"approved","type":"bool","indexed":false,"internalType":"bool"}],"anonymous":false},{"type":"event","name":"OwnershipTransferred","inputs":[{"name":"previousOwner","type":"address","indexed":true,"internalType":"address"},{"name":"newOwner","type":"address","indexed":true,"internalType":"address"}],"anonymous":false},{"type":"event","name":"Transfer","inputs":[{"name":"from","type":"address","indexed":true,"internalType":"address"},{"name":"to","type":"address","indexed":true,"internalType":"address"},{"name":"tokenId","type":"uint256","indexed":true,"internalType":"uint256"}],"anonymous":false},{"type":"error","name":"ERC721IncorrectOwner","inputs":[{"name":"sender","type":"address","internalType":"address"},{"name":"tokenId","type":"uint256","internalType":"uint256"},{"name":"owner","type":"address","internalType":"address"}]},{"type":"error","name":"ERC721InsufficientApproval","inputs":[{"name":"operator","type":"address","internalType":"address"},{"name":"tokenId","type":"uint256","internalType":"uint256"}]},{"type":"error","name":"ERC721InvalidApprover","inputs":[{"name":"approver","type":"address","internalType":"address"}]},{"type":"error","name":"ERC721InvalidOperator","inputs":[{"name":"operator","type":"address","internalType":"address"}]},{"type":"error","name":"ERC721InvalidOwner","inputs":[{"name":"owner","type":"address","internalType":"address"}]},{"type":"error","name":"ERC721InvalidReceiver","inputs":[{"name":"receiver","type":"address","internalType":"address"}]},{"type":"error","name":"ERC721InvalidSender","inputs":[{"name":"sender","type":"address","internalType":"address"}]},{"type":"error","name":"ERC721NonexistentToken","inputs":[{"name":"tokenId","type":"uint256","internalType":"uint256"}]},{"type":"error","name":"OwnableInvalidOwner","inputs":[{"name":"owner","type":"address","internalType":"address"}]},{"type":"error","name":"OwnableUnauthorizedAccount","inputs":[{"name":"account","type":"address","internalType":"address"}]}],"bytecode":{"object":"0x608060405234801561001057600080fd5b506040516120f23803806120f283398101604081905261002f9161016c565b336040518060400160405280601081526020016f4d6f727068657220476f6c6444656d6f60801b815250604051806040016040528060048152602001634658415560e01b8152508160009081610085919061023e565b506001610092828261023e565b5050506001600160a01b0381166100c357604051631e4fbdf760e01b81526000600482015260240160405180910390fd5b6100cc816100fe565b50600980546001600160a01b039384166001600160a01b031991821617909155600a80549290931691161790556102fc565b600680546001600160a01b038381166001600160a01b0319831681179093556040519116919082907f8be0079c531659141344cd1fd0a4f28419497f9722a3daafe3b4186f6b6457e090600090a35050565b80516001600160a01b038116811461016757600080fd5b919050565b6000806040838503121561017f57600080fd5b61018883610150565b915061019660208401610150565b90509250929050565b634e487b7160e01b600052604160045260246000fd5b600181811c908216806101c957607f821691505b6020821081036101e957634e487b7160e01b600052602260045260246000fd5b50919050565b601f82111561023957806000526020600020601f840160051c810160208510156102165750805b601f840160051c820191505b818110156102365760008155600101610222565b50505b505050565b81516001600160401b038111156102575761025761019f565b61026b8161026584546101b5565b846101ef565b6020601f82116001811461029f57600083156102875750848201515b600019600385901b1c1916600184901b178455610236565b600084815260208120601f198516915b828110156102cf57878501518255602094850194600190920191016102af565b50848210156102ed5786840151600019600387901b60f8161c191681555b50505050600190811b01905550565b611de78061030b6000396000f3fe60806040526004361061011f5760003560e01c8063715018a6116100a0578063ade79fd311610064578063ade79fd314610346578063b88d4fde14610373578063c87b56dd14610393578063e985e9c5146103b3578063f2fde38b146103d357600080fd5b8063715018a6146102aa5780638da5cb5b146102bf57806395d89b41146102dd578063977c87de146102f2578063a22cb4651461032657600080fd5b806340d097c3116100e757806340d097c3146101f557806342842e0e146102085780635a31ca06146102285780636352211e1461026a57806370a082311461028a57600080fd5b806301ffc9a71461012457806306fdde0314610159578063081812fc1461017b578063095ea7b3146101b357806323b872dd146101d5575b600080fd5b34801561013057600080fd5b5061014461013f3660046114c2565b6103f3565b60405190151581526020015b60405180910390f35b34801561016557600080fd5b5061016e610445565b6040516101509190611536565b34801561018757600080fd5b5061019b610196366004611549565b6104d7565b6040516001600160a01b039091168152602001610150565b3480156101bf57600080fd5b506101d36101ce36600461157e565b610500565b005b3480156101e157600080fd5b506101d36101f03660046115a8565b61050f565b6101d36102033660046115e5565b61059f565b34801561021457600080fd5b506101d36102233660046115a8565b6107b3565b34801561023457600080fd5b5061025c7fa1f6631578bf799b864f045298214109bf1efe5d0a944674efa81bd9c90c10d681565b604051908152602001610150565b34801561027657600080fd5b5061019b610285366004611549565b6107d3565b34801561029657600080fd5b5061025c6102a53660046115e5565b6107de565b3480156102b657600080fd5b506101d3610826565b3480156102cb57600080fd5b506006546001600160a01b031661019b565b3480156102e957600080fd5b5061016e61083a565b3480156102fe57600080fd5b5061025c7f9a668d8b2069cae627ac3dff9136de03849d0742ff88edb112e7be6b4663b37d81565b34801561033257600080fd5b506101d3610341366004611600565b610849565b34801561035257600080fd5b506103666103613660046114c2565b610854565b604051610150919061163c565b34801561037f57600080fd5b506101d361038e3660046116bc565b6109d3565b34801561039f57600080fd5b5061016e6103ae366004611549565b6109ea565b3480156103bf57600080fd5b506101446103ce3660046117a0565b610a34565b3480156103df57600080fd5b506101d36103ee3660046115e5565b610a62565b60006001600160e01b031982166380ac58cd60e01b148061042457506001600160e01b03198216635b5e139f60e01b145b8061043f57506301ffc9a760e01b6001600160e01b03198316145b92915050565b606060008054610454906117d3565b80601f0160208091040260200160405190810160405280929190818152602001828054610480906117d3565b80156104cd5780601f106104a2576101008083540402835291602001916104cd565b820191906000526020600020905b8154815290600101906020018083116104b057829003601f168201915b5050505050905090565b60006104e282610aa0565b506000828152600460205260409020546001600160a01b031661043f565b61050b828233610ad9565b5050565b6001600160a01b03821661053e57604051633250574960e11b8152600060048201526024015b60405180910390fd5b600061054b838333610ae6565b9050836001600160a01b0316816001600160a01b031614610599576040516364283d7b60e01b81526001600160a01b0380861660048301526024820184905282166044820152606401610535565b50505050565b600a546009546000916105df916001600160a01b0391821691167fa1f6631578bf799b864f045298214109bf1efe5d0a944674efa81bd9c90c10d6610bdf565b600a54600954919250600091610622916001600160a01b0390811691167f9a668d8b2069cae627ac3dff9136de03849d0742ff88edb112e7be6b4663b37d610bdf565b805183519192509061063c90670de0b6b3a7640000611823565b610646919061183a565b8260200151826020015161065a919061185c565b610664919061185c565b3410156106cd5760405162461bcd60e51b815260206004820152603160248201527f4e6f7420656e6f7567682076616c756520746f2070617920666f722058415520604482015270706c7573204f7261636c6520446174612160781b6064820152608401610535565b80518251600091906106e790670de0b6b3a7640000611823565b6106f1919061183a565b83602001518360200151610705919061185c565b61070f919061185c565b610719903461186f565b604051909150339082156108fc029083906000818181858888f19350505050158015610749573d6000803e3d6000fd5b50600780546000918261075b83611882565b91905055905061076b8582610e94565b835160008281526008602052604080822092909255905133914780156108fc02929091818181858888f193505050501580156107ab573d6000803e3d6000fd5b505050505050565b6107ce838383604051806020016040528060008152506109d3565b505050565b600061043f82610aa0565b60006001600160a01b03821661080a576040516322718ad960e21b815260006004820152602401610535565b506001600160a01b031660009081526003602052604090205490565b61082e610eae565b6108386000610edb565b565b606060018054610454906117d3565b61050b338383610f2d565b606063bf2f683d60e01b6001600160e01b03198316016109895760408051600280825260608201909252600091816020015b6040805160608101825260008082526020808301829052928201528252600019909201910181610886575050604080516060810182526009546001600160a01b031681523060208201527fa1f6631578bf799b864f045298214109bf1efe5d0a944674efa81bd9c90c10d691810191909152815191925090829060009061090f5761090f61189b565b602090810291909101810191909152604080516060810182526009546001600160a01b0316815230928101929092527f9a668d8b2069cae627ac3dff9136de03849d0742ff88edb112e7be6b4663b37d908201528151829060019081106109785761097861189b565b602090810291909101015292915050565b60408051600080825260208201909252906109cc565b604080516060810182526000808252602080830182905292820152825260001990920191018161099f5790505b5092915050565b6109de84848461050f565b61059984848484610fcc565b60606109f582610aa0565b50600082815260086020526040902054610a0e906110f5565b604051602001610a1e91906118b1565b6040516020818303038152906040529050919050565b6001600160a01b03918216600090815260056020908152604080832093909416825291909152205460ff1690565b610a6a610eae565b6001600160a01b038116610a9457604051631e4fbdf760e01b815260006004820152602401610535565b610a9d81610edb565b50565b6000818152600260205260408120546001600160a01b03168061043f57604051637e27328960e01b815260048101849052602401610535565b6107ce8383836001611188565b6000828152600260205260408120546001600160a01b0390811690831615610b1357610b1381848661128e565b6001600160a01b03811615610b5157610b30600085600080611188565b6001600160a01b038116600090815260036020526040902080546000190190555b6001600160a01b03851615610b80576001600160a01b0385166000908152600360205260409020805460010190555b60008481526002602052604080822080546001600160a01b0319166001600160a01b0389811691821790925591518793918516917fddf252ad1be2c89b69c2b068fc378daa952ba7f163c4a11628f55a4df523b3ef91a4949350505050565b6040805180820190915260008082526020820152604051633afe9bd360e11b81526001600160a01b03848116600483015260248201849052600091908616906375fd37a690604401602060405180830381865afa158015610c44573d6000803e3d6000fd5b505050506040513d601f19601f82011682018060405250810190610c689190611d0d565b6040516331fbc06960e21b81526001600160a01b0386811660048301526024820186905291925060009187169063c7ef01a490849060440160206040518083038185885af1158015610cbe573d6000803e3d6000fd5b50505050506040513d601f19601f82011682018060405250810190610ce39190611d0d565b90508060d081901c610cf6601e4261186f565b610d02906103e8611823565b8111610d885760405162461bcd60e51b815260206004820152604960248201527f4d6f72706865724f7261636c652d44617461446570656e64656e743a2054696d60448201527f657374616d7020746f6f20736d616c6c2c206461746120746f6f206f6c642c2060648201526861626f7274696e672160b81b608482015260a401610535565b6000610d9682610100611823565b610da49060c885901c61186f565b90508060ff16601214610e335760405162461bcd60e51b815260206004820152604b60248201527f4d6f72706865724f7261636c652d44617461446570656e64656e743a204f726160448201527f636c6520726573706f6e736520776974682077726f6e6720646563696d616c7360648201526a2c2061626f7274696e672160a81b608482015260a401610535565b6000610e4660ff8316600160c81b611d26565b6001600160d01b0316610e5d84600160d01b611823565b610e67908661186f565b610e71919061186f565b604080518082019091529081526020810196909652509398975050505050505050565b61050b8282604051806020016040528060008152506112f2565b6006546001600160a01b031633146108385760405163118cdaa760e01b8152336004820152602401610535565b600680546001600160a01b038381166001600160a01b0319831681179093556040519116919082907f8be0079c531659141344cd1fd0a4f28419497f9722a3daafe3b4186f6b6457e090600090a35050565b6001600160a01b038216610f5f57604051630b61174360e31b81526001600160a01b0383166004820152602401610535565b6001600160a01b03838116600081815260056020908152604080832094871680845294825291829020805460ff191686151590811790915591519182527f17307eab39ab6107e8899845ad3d59bd9653f200f220920489ca2b5937696c31910160405180910390a3505050565b6001600160a01b0383163b1561059957604051630a85bd0160e11b81526001600160a01b0384169063150b7a029061100e903390889087908790600401611d57565b6020604051808303816000875af1925050508015611049575060408051601f3d908101601f1916820190925261104691810190611d94565b60015b6110b2573d808015611077576040519150601f19603f3d011682016040523d82523d6000602084013e61107c565b606091505b5080516000036110aa57604051633250574960e11b81526001600160a01b0385166004820152602401610535565b805181602001fd5b6001600160e01b03198116630a85bd0160e11b146110ee57604051633250574960e11b81526001600160a01b0385166004820152602401610535565b5050505050565b6060600061110283611309565b600101905060008167ffffffffffffffff811115611122576111226116a6565b6040519080825280601f01601f19166020018201604052801561114c576020820181803683370190505b5090508181016020015b600019016f181899199a1a9b1b9c1cb0b131b232b360811b600a86061a8153600a850494508461115657509392505050565b808061119c57506001600160a01b03821615155b1561125e5760006111ac84610aa0565b90506001600160a01b038316158015906111d85750826001600160a01b0316816001600160a01b031614155b80156111eb57506111e98184610a34565b155b156112145760405163a9fbf51f60e01b81526001600160a01b0384166004820152602401610535565b811561125c5783856001600160a01b0316826001600160a01b03167f8c5be1e5ebec7d5bd14f71427d1e84f3dd0314c0f7b2291e5b200ac8c7c3b92560405160405180910390a45b505b5050600090815260046020526040902080546001600160a01b0319166001600160a01b0392909216919091179055565b6112998383836113e1565b6107ce576001600160a01b0383166112c757604051637e27328960e01b815260048101829052602401610535565b60405163177e802f60e01b81526001600160a01b038316600482015260248101829052604401610535565b6112fc8383611447565b6107ce6000848484610fcc565b60008072184f03e93ff9f4daa797ed6e38ed64bf6a1f0160401b83106113485772184f03e93ff9f4daa797ed6e38ed64bf6a1f0160401b830492506040015b6d04ee2d6d415b85acef81000000008310611374576d04ee2d6d415b85acef8100000000830492506020015b662386f26fc10000831061139257662386f26fc10000830492506010015b6305f5e10083106113aa576305f5e100830492506008015b61271083106113be57612710830492506004015b606483106113d0576064830492506002015b600a831061043f5760010192915050565b60006001600160a01b0383161580159061143f5750826001600160a01b0316846001600160a01b0316148061141b575061141b8484610a34565b8061143f57506000828152600460205260409020546001600160a01b038481169116145b949350505050565b6001600160a01b03821661147157604051633250574960e11b815260006004820152602401610535565b600061147f83836000610ae6565b90506001600160a01b038116156107ce576040516339e3563760e11b815260006004820152602401610535565b6001600160e01b031981168114610a9d57600080fd5b6000602082840312156114d457600080fd5b81356114df816114ac565b9392505050565b60005b838110156115015781810151838201526020016114e9565b50506000910152565b600081518084526115228160208601602086016114e6565b601f01601f19169290920160200192915050565b6020815260006114df602083018461150a565b60006020828403121561155b57600080fd5b5035919050565b80356001600160a01b038116811461157957600080fd5b919050565b6000806040838503121561159157600080fd5b61159a83611562565b946020939093013593505050565b6000806000606084860312156115bd57600080fd5b6115c684611562565b92506115d460208501611562565b929592945050506040919091013590565b6000602082840312156115f757600080fd5b6114df82611562565b6000806040838503121561161357600080fd5b61161c83611562565b91506020830135801515811461163157600080fd5b809150509250929050565b602080825282518282018190526000918401906040840190835b8181101561169b57835180516001600160a01b039081168552602080830151909116818601526040918201519185019190915290930192606090920191600101611656565b509095945050505050565b634e487b7160e01b600052604160045260246000fd5b600080600080608085870312156116d257600080fd5b6116db85611562565b93506116e960208601611562565b925060408501359150606085013567ffffffffffffffff81111561170c57600080fd5b8501601f8101871361171d57600080fd5b803567ffffffffffffffff811115611737576117376116a6565b604051601f8201601f19908116603f0116810167ffffffffffffffff81118282101715611766576117666116a6565b60405281815282820160200189101561177e57600080fd5b8160208401602083013760006020838301015280935050505092959194509250565b600080604083850312156117b357600080fd5b6117bc83611562565b91506117ca60208401611562565b90509250929050565b600181811c908216806117e757607f821691505b60208210810361180757634e487b7160e01b600052602260045260246000fd5b50919050565b634e487b7160e01b600052601160045260246000fd5b808202811582820484141761043f5761043f61180d565b60008261185757634e487b7160e01b600052601260045260246000fd5b500490565b8082018082111561043f5761043f61180d565b8181038181111561043f5761043f61180d565b6000600182016118945761189461180d565b5060010190565b634e487b7160e01b600052603260045260246000fd5b7f646174613a6170706c69636174696f6e2f6a736f6e3b757466382c000000000081527f7b226e616d65223a224d6f7270686572204f7261636c6520476f6c64546f6b65601b8201527f6e222c20226465736372697074696f6e223a2244656d6f20746f206d696e6420603b8201527f6f6e65204f756e6365206f6620476f6c642061742063757272656e7420507269605b8201527f636573222c202261747472696275746573223a5b7b2274726169745f74797065607b8201527f223a20225075726368617365205072696365222c2276616c7565223a20000000609b820152600082516119a78160b88501602087016114e6565b7f7d5d2c2022696d616765223a22646174613a696d6167652f7376672b786d6c3b60b89390910192830152507f6261736536342c50484e325a79423261575633516d393450534977494441674d60d88201527f6a4177494449774d43496765473173626e4d39496d6830644841364c7939336460f88201527f336375647a4d7562334a6e4c7a49774d44417663335a6e49694277636d567a5a6101188201527f584a325a55467a6347566a64464a6864476c7650534a3454576c6b575531705a6101388201527f4342745a575630496a344b49434138636d566a6443423361575230614430694d6101588201527f5441774a534967614756705a326830505349784d44416c4969426d61577873506101788201527f53496a5a6a686d4e5751774969417650676f674944786a61584a6a62475567596101988201527f336739496a45774d43496759336b39496a45774d434967636a30694f544169496101b88201527f475a7062477739496d64766247516949484e30636d39725a54306949325130596101d88201527f57597a4e794967633352796232746c4c5864705a48526f505349784d4349674c6101f88201527f7a344b4943413859326c795932786c49474e34505349784d44416949474e35506102188201527f5349784d44416949484939496a59774969426d6157787350534a756232356c496102388201527f69427a64484a7661325539496e4a6e596d456f4d6a55314c4341794e545573496102588201527f4449314e5377674d4334324b534967633352796232746c4c5864705a48526f506102788201527f5349314969417650676f67494478305a58683049486739496a55774a534967656102988201527f5430694e54416c496942305a5868304c57467559326876636a306962576c6b5a6102b88201527f47786c4969426d615778735053496a5a4452685a6a4d334969426d623235304c6102d88201527f584e70656d5539496a55774969426d623235304c575a6862576c7365543069516102f88201527f584a705957776949475235505349754d7a566c6253492b515855384c33526c656103188201527f48512b436a777663335a6e50676f3d222c202265787465726e616c5f75726c226103388201527f3a2268747470733a2f2f6f7261636c652e6d6f72706865722e636f6d227d000061035882015261037601919050565b600060208284031215611d1f57600080fd5b5051919050565b6001600160d01b03818116838216818102909216918183048114821517611d4f57611d4f61180d565b505092915050565b6001600160a01b0385811682528416602082015260408101839052608060608201819052600090611d8a9083018461150a565b9695505050505050565b600060208284031215611da657600080fd5b81516114df816114ac56fea26469706673582212207f058d8c300629748c4edd07c9c68d4d06f2fb74e3432d17b50db421b995d76064736f6c634300081a0033","linkReferences":{}},"methodIdentifiers":{"MARKET_POL()":"977c87de","MARKET_XAU()":"5a31ca06","approve(address,uint256)":"095ea7b3","balanceOf(address)":"70a08231","getApproved(uint256)":"081812fc","isApprovedForAll(address,address)":"e985e9c5","name()":"06fdde03","owner()":"8da5cb5b","ownerOf(uint256)":"6352211e","renounceOwnership()":"715018a6","requirements(bytes4)":"ade79fd3","safeMint(address)":"40d097c3","safeTransferFrom(address,address,uint256)":"42842e0e","safeTransferFrom(address,address,uint256,bytes)":"b88d4fde","setApprovalForAll(address,bool)":"a22cb465","supportsInterface(bytes4)":"01ffc9a7","symbol()":"95d89b41","tokenURI(uint256)":"c87b56dd","transferFrom(address,address,uint256)":"23b872dd","transferOwnership(address)":"f2fde38b"},"storageLayout":{"storage":[{"astId":40756,"contract":"src/PreciousMetals.sol:GoldCoin","label":"_name","offset":0,"slot":"0","type":"t_string_storage"},{"astId":40758,"contract":"src/PreciousMetals.sol:GoldCoin","label":"_symbol","offset":0,"slot":"1","type":"t_string_storage"},{"astId":40762,"contract":"src/PreciousMetals.sol:GoldCoin","label":"_owners","offset":0,"slot":"2","type":"t_mapping(t_uint256,t_address)"},{"astId":40766,"contract":"src/PreciousMetals.sol:GoldCoin","label":"_balances","offset":0,"slot":"3","type":"t_mapping(t_address,t_uint256)"},{"astId":40770,"contract":"src/PreciousMetals.sol:GoldCoin","label":"_tokenApprovals","offset":0,"slot":"4","type":"t_mapping(t_uint256,t_address)"},{"astId":40776,"contract":"src/PreciousMetals.sol:GoldCoin","label":"_operatorApprovals","offset":0,"slot":"5","type":"t_mapping(t_address,t_mapping(t_address,t_bool))"},{"astId":40447,"contract":"src/PreciousMetals.sol:GoldCoin","label":"_owner","offset":0,"slot":"6","type":"t_address"},{"astId":43440,"contract":"src/PreciousMetals.sol:GoldCoin","label":"_nextTokenId","offset":0,"slot":"7","type":"t_uint256"},{"astId":43444,"contract":"src/PreciousMetals.sol:GoldCoin","label":"tokenPriceInUsd","offset":0,"slot":"8","type":"t_mapping(t_uint256,t_uint256)"},{"astId":43446,"contract":"src/PreciousMetals.sol:GoldCoin","label":"dataProvider","offset":0,"slot":"9","type":"t_address"},{"astId":43448,"contract":"src/PreciousMetals.sol:GoldCoin","label":"oracle","offset":0,"slot":"10","type":"t_address"}],"types":{"t_address":{"encoding":"inplace","label":"address","numberOfBytes":"20"},"t_bool":{"encoding":"inplace","label":"bool","numberOfBytes":"1"},"t_mapping(t_address,t_bool)":{"encoding":"mapping","key":"t_address","label":"mapping(address => bool)","numberOfBytes":"32","value":"t_bool"},"t_mapping(t_address,t_mapping(t_address,t_bool))":{"encoding":"mapping","key":"t_address","label":"mapping(address => mapping(address => bool))","numberOfBytes":"32","value":"t_mapping(t_address,t_bool)"},"t_mapping(t_address,t_uint256)":{"encoding":"mapping","key":"t_address","label":"mapping(address => uint256)","numberOfBytes":"32","value":"t_uint256"},"t_mapping(t_uint256,t_address)":{"encoding":"mapping","key":"t_uint256","label":"mapping(uint256 => address)","numberOfBytes":"32","value":"t_address"},"t_mapping(t_uint256,t_uint256)":{"encoding":"mapping","key":"t_uint256","label":"mapping(uint256 => uint256)","numberOfBytes":"32","value":"t_uint256"},"t_string_storage":{"encoding":"bytes","label":"string","numberOfBytes":"32"},"t_uint256":{"encoding":"inplace","label":"uint256","numberOfBytes":"32"}}},"id":40}