{"abi":[{"type":"function","name":"_checkProviderSignature","inputs":[{"name":"_provider","type":"address","internalType":"address"},{"name":"_requester","type":"address","internalType":"address"},{"name":"_nonce","type":"uint256","internalType":"uint256"},{"name":"_dataKey","type":"bytes32","internalType":"bytes32"},{"name":"_dataValue","type":"bytes32","internalType":"bytes32"},{"name":"_v","type":"uint8","internalType":"uint8"},{"name":"_r","type":"bytes32","internalType":"bytes32"},{"name":"_s","type":"bytes32","internalType":"bytes32"}],"outputs":[{"name":"","type":"bool","internalType":"bool"}],"stateMutability":"view"},{"type":"function","name":"consumeData","inputs":[{"name":"_provider","type":"address","internalType":"address"},{"name":"_dataKey","type":"bytes32","internalType":"bytes32"}],"outputs":[{"name":"","type":"bytes32","internalType":"bytes32"}],"stateMutability":"payable"},{"type":"function","name":"deposit","inputs":[{"name":"_target","type":"address","internalType":"address"}],"outputs":[],"stateMutability":"payable"},{"type":"function","name":"deposits","inputs":[{"name":"","type":"address","internalType":"address"}],"outputs":[{"name":"","type":"uint256","internalType":"uint256"}],"stateMutability":"view"},{"type":"function","name":"nonces","inputs":[{"name":"","type":"address","internalType":"address"}],"outputs":[{"name":"","type":"uint256","internalType":"uint256"}],"stateMutability":"view"},{"type":"function","name":"prices","inputs":[{"name":"","type":"address","internalType":"address"},{"name":"","type":"bytes32","internalType":"bytes32"}],"outputs":[{"name":"","type":"uint256","internalType":"uint256"}],"stateMutability":"view"},{"type":"function","name":"providerIsBurned","inputs":[{"name":"","type":"address","internalType":"address"}],"outputs":[{"name":"","type":"bool","internalType":"bool"}],"stateMutability":"view"},{"type":"function","name":"setPrice","inputs":[{"name":"_provider","type":"address","internalType":"address"},{"name":"_nonce","type":"uint256","internalType":"uint256"},{"name":"_dataKey","type":"bytes32","internalType":"bytes32"},{"name":"_price","type":"uint256","internalType":"uint256"},{"name":"_r","type":"bytes32","internalType":"bytes32"},{"name":"_s","type":"bytes32","internalType":"bytes32"},{"name":"_v","type":"uint8","internalType":"uint8"}],"outputs":[],"stateMutability":"nonpayable"},{"type":"function","name":"setProviderIsBurned","inputs":[],"outputs":[],"stateMutability":"nonpayable"},{"type":"function","name":"storeData","inputs":[{"name":"_provider","type":"address","internalType":"address"},{"name":"_requester","type":"address","internalType":"address"},{"name":"_nonce","type":"uint256","internalType":"uint256"},{"name":"_dataKey","type":"bytes32","internalType":"bytes32"},{"name":"_dataValue","type":"bytes32","internalType":"bytes32"},{"name":"_r","type":"bytes32","internalType":"bytes32"},{"name":"_s","type":"bytes32","internalType":"bytes32"},{"name":"_v","type":"uint8","internalType":"uint8"}],"outputs":[],"stateMutability":"nonpayable"},{"type":"event","name":"DataConsumed","inputs":[{"name":"provider","type":"address","indexed":false,"internalType":"address"},{"name":"requester","type":"address","indexed":false,"internalType":"address"},{"name":"dataKey","type":"bytes32","indexed":false,"internalType":"bytes32"}],"anonymous":false}],"bytecode":{"object":"0x6080604052348015600f57600080fd5b50610c108061001f6000396000f3fe6080604052600436106100915760003560e01c806391dd3d251161005957806391dd3d251461019c578063c7ef01a4146101bc578063e1c82383146101cf578063f340fa01146101ef578063fc7e286d1461020257600080fd5b80631a4c7b4d146100965780636a0d4b32146100c457806375fd37a6146101095780637ecebe001461014f5780638b1170831461017c575b600080fd5b3480156100a257600080fd5b506100c2336000908152600460205260409020805460ff19166001179055565b005b3480156100d057600080fd5b506100f46100df3660046108f0565b60046020526000908152604090205460ff1681565b60405190151581526020015b60405180910390f35b34801561011557600080fd5b50610141610124366004610912565b600360209081526000928352604080842090915290825290205481565b604051908152602001610100565b34801561015b57600080fd5b5061014161016a3660046108f0565b60016020526000908152604090205481565b34801561018857600080fd5b506100c261019736600461094d565b61022f565b3480156101a857600080fd5b506100c26101b73660046109b0565b610483565b6101416101ca366004610912565b6105ce565b3480156101db57600080fd5b506100f46101ea366004610a24565b610771565b6100c26101fd3660046108f0565b6108a4565b34801561020e57600080fd5b5061014161021d3660046108f0565b60006020819052908152604090205481565b6001600160a01b038716600090815260016020526040902054861461026f5760405162461bcd60e51b815260040161026690610a98565b60405180910390fd5b6001600160a01b03871660009081526004602052604090205460ff16156102a85760405162461bcd60e51b815260040161026690610ae5565b6001600160a01b03871660009081526001602052604081208054916102cc83610b4e565b909155505060408051808201825260208082527f194f7261636c65205369676e6564205072696365204368616e67653a0a313438818301528251469181019190915260608a901b6bffffffffffffffffffffffff191681840152605481018990526074810188905260948082018890528351808303909101815260b48201909352909160009161036091849160d401610b97565b60408051601f198184030181528282528051602091820120600080855291840180845281905260ff87169284019290925260608301889052608083018790529092509060019060a0016020604051602081039080840390855afa1580156103cb573d6000803e3d6000fd5b505050602060405103519050806001600160a01b03168a6001600160a01b0316146104525760405162461bcd60e51b815260206004820152603160248201527f4f7261636c65456e747279706f696e743a20496e76616c6964207072696365206044820152706368616e6765207369676e61747572657360781b6064820152608401610266565b505050506001600160a01b039590951660009081526003602090815260408083209583529490529290922055505050565b6001600160a01b03881660009081526001602052604090205486146104ba5760405162461bcd60e51b815260040161026690610a98565b6001600160a01b03881660009081526004602052604090205460ff16156104f35760405162461bcd60e51b815260040161026690610ae5565b6001600160a01b038816600090815260016020526040812080549161051783610b4e565b9190505550600061052e8989898989878a8a610771565b9050806105935760405162461bcd60e51b815260206004820152602d60248201527f4f7261636c65456e747279706f696e743a20496e76616c69642070726f76696460448201526c6572207369676e61747572652160981b6064820152608401610266565b505050506001600160a01b03948516600090815260026020908152604080832096909716825294855285812092815291909352929092205550565b336000908152602081905260408120805434919083906105ef908490610bb4565b90915550506001600160a01b0383166000908152600360209081526040808320858452825280832054338452918390529091205481111561068e5760405162461bcd60e51b815260206004820152603360248201527f4f7261636c65456e747279706f696e743a204e6f7420656e6f756768206d6f6e604482015272657920746f2070617920666f7220646174612160681b6064820152608401610266565b6040516001600160a01b0385169082156108fc029083906000818181858888f193505050501580156106c4573d6000803e3d6000fd5b50336000908152602081905260409020546106e0908290610bc7565b33600081815260208181526040918290209390935580516001600160a01b03881681529283019190915281018490527f216b24d624a209e8bce76b60375a89ccbac6e0445cbf195c578fce07f3d2e1f09060600160405180910390a150506001600160a01b038216600090815260026020908152604080832033845282528083208484529091529020545b92915050565b604080518082018252601b81527f194f7261636c65205369676e65642044617461204f703a0a3136380000000000602080830191909152825146918101919091526bffffffffffffffffffffffff1960608c811b821683860152605483018b90528b901b1660748201526088810188905260a88082018890528351808303909101815260c88201909352600092839161080e91849160e801610b97565b60408051601f198184030181528282528051602091820120600080855291840180845281905260ff8a169284019290925260608301889052608083018790529092509060019060a0016020604051602081039080840390855afa158015610879573d6000803e3d6000fd5b5050604051601f1901516001600160a01b03908116908e161494505050505098975050505050505050565b6001600160a01b038116600090815260208190526040812080543492906108cc908490610bb4565b909155505050565b80356001600160a01b03811681146108eb57600080fd5b919050565b60006020828403121561090257600080fd5b61090b826108d4565b9392505050565b6000806040838503121561092557600080fd5b61092e836108d4565b946020939093013593505050565b803560ff811681146108eb57600080fd5b600080600080600080600060e0888a03121561096857600080fd5b610971886108d4565b96506020880135955060408801359450606088013593506080880135925060a088013591506109a260c0890161093c565b905092959891949750929550565b600080600080600080600080610100898b0312156109cd57600080fd5b6109d6896108d4565b97506109e460208a016108d4565b965060408901359550606089013594506080890135935060a0890135925060c08901359150610a1560e08a0161093c565b90509295985092959890939650565b600080600080600080600080610100898b031215610a4157600080fd5b610a4a896108d4565b9750610a5860208a016108d4565b9650604089013595506060890135945060808901359350610a7b60a08a0161093c565b979a969950949793969295929450505060c08201359160e0013590565b6020808252602d908201527f4f7261636c65456e747279706f696e743a20496e76616c6964206e6f6e63652060408201526c666f722070726f76696465722160981b606082015260800190565b60208082526033908201527f4f7261636c65456e747279706f696e743a2050726f7669646572206973206275604082015272726e65642c2063616e6e6f742075706461746560681b606082015260800190565b634e487b7160e01b600052601160045260246000fd5b600060018201610b6057610b60610b38565b5060010190565b6000815160005b81811015610b885760208185018101518683015201610b6e565b50600093019283525090919050565b6000610bac610ba68386610b67565b84610b67565b949350505050565b8082018082111561076b5761076b610b38565b8181038181111561076b5761076b610b3856fea2646970667358221220ecfd93df266e33be8b6817a32fda35d8dab147ca5d3e60933b245caaad1751b564736f6c634300081a0033","linkReferences":{}},"methodIdentifiers":{"_checkProviderSignature(address,address,uint256,bytes32,bytes32,uint8,bytes32,bytes32)":"e1c82383","consumeData(address,bytes32)":"c7ef01a4","deposit(address)":"f340fa01","deposits(address)":"fc7e286d","nonces(address)":"7ecebe00","prices(address,bytes32)":"75fd37a6","providerIsBurned(address)":"6a0d4b32","setPrice(address,uint256,bytes32,uint256,bytes32,bytes32,uint8)":"8b117083","setProviderIsBurned()":"1a4c7b4d","storeData(address,address,uint256,bytes32,bytes32,bytes32,bytes32,uint8)":"91dd3d25"},"storageLayout":{"storage":[{"astId":175,"contract":"lib/erc4337-oracle/src/OracleEntrypoint.sol:OracleEntrypoint","label":"deposits","offset":0,"slot":"0","type":"t_mapping(t_address,t_uint256)"},{"astId":179,"contract":"lib/erc4337-oracle/src/OracleEntrypoint.sol:OracleEntrypoint","label":"nonces","offset":0,"slot":"1","type":"t_mapping(t_address,t_uint256)"},{"astId":187,"contract":"lib/erc4337-oracle/src/OracleEntrypoint.sol:OracleEntrypoint","label":"data","offset":0,"slot":"2","type":"t_mapping(t_address,t_mapping(t_address,t_mapping(t_bytes32,t_bytes32)))"},{"astId":193,"contract":"lib/erc4337-oracle/src/OracleEntrypoint.sol:OracleEntrypoint","label":"prices","offset":0,"slot":"3","type":"t_mapping(t_address,t_mapping(t_bytes32,t_uint256))"},{"astId":205,"contract":"lib/erc4337-oracle/src/OracleEntrypoint.sol:OracleEntrypoint","label":"providerIsBurned","offset":0,"slot":"4","type":"t_mapping(t_address,t_bool)"}],"types":{"t_address":{"encoding":"inplace","label":"address","numberOfBytes":"20"},"t_bool":{"encoding":"inplace","label":"bool","numberOfBytes":"1"},"t_bytes32":{"encoding":"inplace","label":"bytes32","numberOfBytes":"32"},"t_mapping(t_address,t_bool)":{"encoding":"mapping","key":"t_address","label":"mapping(address => bool)","numberOfBytes":"32","value":"t_bool"},"t_mapping(t_address,t_mapping(t_address,t_mapping(t_bytes32,t_bytes32)))":{"encoding":"mapping","key":"t_address","label":"mapping(address => mapping(address => mapping(bytes32 => bytes32)))","numberOfBytes":"32","value":"t_mapping(t_address,t_mapping(t_bytes32,t_bytes32))"},"t_mapping(t_address,t_mapping(t_bytes32,t_bytes32))":{"encoding":"mapping","key":"t_address","label":"mapping(address => mapping(bytes32 => bytes32))","numberOfBytes":"32","value":"t_mapping(t_bytes32,t_bytes32)"},"t_mapping(t_address,t_mapping(t_bytes32,t_uint256))":{"encoding":"mapping","key":"t_address","label":"mapping(address => mapping(bytes32 => uint256))","numberOfBytes":"32","value":"t_mapping(t_bytes32,t_uint256)"},"t_mapping(t_address,t_uint256)":{"encoding":"mapping","key":"t_address","label":"mapping(address => uint256)","numberOfBytes":"32","value":"t_uint256"},"t_mapping(t_bytes32,t_bytes32)":{"encoding":"mapping","key":"t_bytes32","label":"mapping(bytes32 => bytes32)","numberOfBytes":"32","value":"t_bytes32"},"t_mapping(t_bytes32,t_uint256)":{"encoding":"mapping","key":"t_bytes32","label":"mapping(bytes32 => uint256)","numberOfBytes":"32","value":"t_uint256"},"t_uint256":{"encoding":"inplace","label":"uint256","numberOfBytes":"32"}}},"id":2}